:020000040000FA
:040000008A013F2909
:040004000034003490
:08000800FE2A903098008316D7
:100010002430980019309900831208008C1E0E2895
:100020001A08BD0008000C1E1328990008000000E3
:100030000000000000000000000008004B30B3008A
:100040001720B30B202808009A30B4001720B40BF7
:10005000262808000530B5002420B50B2C28080000
:10006000C830B6002A20B60B322808008610831646
:100070008610831208008316861483120800061067
:1000800083160610831208008316061483120800D4
:100090003B20442036203F200800362044203B20CF
:1000A0000800C1173B2044201720861CC1133F20A5
:1000B0000800411F5D283B205E2836204420172081
:1000C0003F200800C2010830C6000310C20D5120B5
:1000D000C11B4214C60B662808000830C600411335
:1000E000C31B41175920C30DC60B6F285120C11BDC
:1000F000861508004820A030C3006D204708C300C3
:100100006D204808C3006D204408C3006D204D20B9
:100110002420242024202420242008004820A0304B
:10012000C3006D204708C3006D204808C3006D2040
:100130004820A130C3006D206220411759204D2076
:1001400017201720172017201720080003138316E5
:100150008B019B0178308F00FF308500E7308600EF
:10016000831208003718B528BF2805140513831615
:100170009B1405100513831289309F00C82885142D
:10018000851383161B1485138510831281309F00FD
:1001900024201F151F19CA281E08B800831605142D
:1001A0000517851485171B109B10831208008316F2
:1001B0001B15831291309F0024201F151F19DE2864
:1001C0001E08BB0083161B118312080083169B15A3
:1001D000831299309F0024201F151F19ED281E0837
:1001E000BC0083169B118312080048200030C30016
:1001F0006D200630C3006D204D20242008004820CB
:100200008030C3006D200030C3006D201030C3006B
:100210006D204D2048208030C3006D20FE30C3008B
:100220006D207F30C3006D204D2048208030C300FA
:100230006D200030C3006D20A030C3006D204D2024
:10024000080048208030C3006D200310CA0D031041
:10025000CA0D06304A07C3006D200030C3006D2070
:100260000030C3006D20D101CD3050070318511468
:10027000C3006D205108C3006D204D200800A6204A
:100280000520F520FF20D301D401D50183160B17DB
:100290008C1683128B1706120030B1005930B20051
:1002A000B10B6C29B20B6C290030B1005930B2008F
:1002B00086195B295D2986115E2986150030B700F5
:1002C000B2203808BA000130B700B2203808B900AF
:1002D000D720E6200D225029530854020319502933
:1002E00000305502031D7529982901305502031D60
:1002F0007A29AB2902305502031D7F29BE2903301C
:100300005502031D8429CB2904305502031D892978
:10031000D82905305502031D8E29E52906305502DE
:10032000031D9329F22907305502031D7529FF2962
:1003300054080739203E84000008BD00D40A073065
:10034000D4052030800047303D02031D5029D50AD6
:100350000730D505502954080739203E840000088D
:10036000BD00D40A0730D405203080004F303D0254
:10037000031D5029D50A0730D505502954080739DF
:10038000203E84000008CB00D40A0730D405D50AEB
:100390000730D505502954080739203E840000084D
:1003A000CC00D40A0730D405D50A0730D50550292A
:1003B00054080739203E84000008CD00D40A0730D5
:1003C000D405D50A0730D505502954080739203EF1
:1003D00084000008CE00D40A0730D405D50A0730BF
:1003E000D505502954080739203E84000008CF0065
:1003F000D40A0730D405D50A0730D505502954084A
:100400000739203E84000008D200D40A0730D40502
:10041000D50A0730D505272250290030473E4F3EE8
:1004200039073A073B073C07583ED20047301320B4
:100430004F301320390813203A0813203B081320AB
:100440003C081320583013205208132008000030B5
:10045000CA004B08D00021210130CA004C08D0004E
:1004600021210230CA004D08D00021210330CA00EA
:100470004E08D00021210430CA004F08D0002121AD
:100480000800BF004822C0003F0E4822BF000800FD
:100490000F39BE000A303E02031C4F2A073E3A3E87
:1004A00008000D30132039084122583013203D3008
:1004B000132030301320783013203F0813204008D9
:1004C000132020301320203013203A0841225930C5
:1004D00013203D30132030301320783013203F0894
:1004E00013204008132020301320203013203B0815
:1004F0004122503013203D3013203030132078300B
:1005000013203F08132040081320203013202030F0
:1005100013203C084122423013203D30132030305C
:100520001320783013203F08132040081320203078
:1005300013202030132020301320203013202030AF
:10054000132020301320203013202030132020309F
:10055000132020301320203013202030132020308F
:10056000132020301320203013202030132020307F
:1005700013202030132020301320203013200800B7
:10058000303013203D3013204B081320203013202F
:10059000313013203D3013204C081320203013201D
:1005A000323013203D3013204D081320203013200B
:1005B000333013203D3013204E08132020301320F9
:1005C000343013203D3013204F08132020301320E7
:1005D0000800203013202030132020081320210889
:1005E0001320220813202308132024081320250891
:1005F000132026081320270813200800F100030801
:10060000F2000A08F3008C1E172B1A08BD008C128A
:1006100053080739203E84003D088000D30A073084
:10062000D305061A142B162B0612172B0616730861
:0C0630008A0072088300F10E710E0900B0
:02400E00703F01
:02401000FC3F73
:084200000000010002000300B0
:00000001FF
